{
  "_format": "hh-sol-artifact-1",
  "contractName": "QuestionAndAnswerFactory",
  "sourceName": "contracts/QuestionAndAnswerFactory.sol",
  "abi": [
    {
      "inputs": [
        {
          "internalType": "address",
          "name": "contractAddress",
          "type": "address"
        },
        {
          "internalType": "address",
          "name": "owner",
          "type": "address"
        }
      ],
      "name": "QuestionAndAnswerContractAlreadyDeployed",
      "type": "error"
    },
    {
      "anonymous": false,
      "inputs": [
        {
          "indexed": true,
          "internalType": "address",
          "name": "contractAddress",
          "type": "address"
        },
        {
          "indexed": true,
          "internalType": "address",
          "name": "owner",
          "type": "address"
        }
      ],
      "name": "QuestionAndAnswerContractCreated",
      "type": "event"
    },
    {
      "inputs": [
        {
          "internalType": "address",
          "name": "owner_",
          "type": "address"
        },
        {
          "internalType": "bytes",
          "name": "metadataUrl_",
          "type": "bytes"
        },
        {
          "internalType": "uint256",
          "name": "minReward_",
          "type": "uint256"
        }
      ],
      "name": "CreateNewQuestionAndAnswerContract",
      "outputs": [
        {
          "internalType": "address",
          "name": "",
          "type": "address"
        }
      ],
      "stateMutability": "nonpayable",
      "type": "function"
    },
    {
      "inputs": [
        {
          "internalType": "address",
          "name": "",
          "type": "address"
        }
      ],
      "name": "QuestionAndAnswerMapping",
      "outputs": [
        {
          "internalType": "address",
          "name": "",
          "type": "address"
        }
      ],
      "stateMutability": "view",
      "type": "function"
    }
  ],
  "bytecode": "0x608060405234801561001057600080fd5b50614ff1806100206000396000f3fe60806040523480156200001157600080fd5b50600436106200003a5760003560e01c80632676b99b146200003f578063854c32161462000072575b600080fd5b62000056620000503660046200022b565b6200009e565b6040516001600160a01b03909116815260200160405180910390f35b620000566200008336600462000302565b6000602081905290815260409020546001600160a01b031681565b6001600160a01b03838116600090815260208190526040812054909116156200011a576001600160a01b03848116600081815260208190526040908190205490517fb24eb9f100000000000000000000000000000000000000000000000000000000815292166004830152602482015260440160405180910390fd5b60008484846040516200012d90620001d1565b6200013b9392919062000327565b604051809103906000f08015801562000158573d6000803e3d6000fd5b506001600160a01b0386811660008181526020819052604080822080547fffffffffffffffffffffffff00000000000000000000000000000000000000001694861694851790555193945090927f14497bb39e0392ddce31f1b405f9a242e794678be05b7ef6d6b5e24835e24bca9190a3949350505050565b614c2c806200039083390190565b80356001600160a01b0381168114620001f757600080fd5b919050565b7f4e487b7100000000000000000000000000000000000000000000000000000000600052604160045260246000fd5b6000806000606084860312156200024157600080fd5b6200024c84620001df565b9250602084013567ffffffffffffffff808211156200026a57600080fd5b818601915086601f8301126200027f57600080fd5b813581811115620002945762000294620001fc565b604051601f8201601f19908116603f01168101908382118183101715620002bf57620002bf620001fc565b81604052828152896020848701011115620002d957600080fd5b826020860160208301376000602084830101528096505050505050604084013590509250925092565b6000602082840312156200031557600080fd5b6200032082620001df565b9392505050565b6001600160a01b038416815260006020606081840152845180606085015260005b81811015620003665786810183015185820160800152820162000348565b506000608082860101526080601f19601f8301168501019250505082604083015294935050505056fe60806040523480156200001157600080fd5b5060405162004c2c38038062004c2c833981016040819052620000349162000845565b6040518060400160405280601181526020017028bab2b9ba34b7b710131020b739bbb2b960791b81525060405180604001604052806003815260200162516e4160e81b815250846000600484848484816200009e62000098620003fb60201b60201c565b620003ff565b6001600160a01b038116620000c6576040516306b620db60e21b815260040160405180910390fd5b620000d181620003ff565b506040805180820190915260048152632936598960e21b60208201526200011a907feafec4d89fa9619884b60000a4d96624a38f7ac2d8d9a604ecf07c12c77e480c906200044f565b620001467fdeba1e292f8ba88238e10ab3c7f88bd4be4fac56cad5194b6ecceaf653468af1856200044f565b620001727f2f0a68ab07768e01943a599e73362a0e17a63a72e94dd2e384d2c1d4db932756846200044f565b6040805160208101839052620001bb917fe0261fa95db2eb3b5439bd033cda66d56b96f92f243a8228fd87550ed7bdfdb3910160408051601f198184030181529190526200044f565b505060408051602081018590526200020893507ff675e9361af1c1664c1868cfa3eb97672d6b1a513aa5b81dec34c9ee330e818d92500160408051601f19818403018152919052620004a8565b506200022393508692506324871b3d60e01b9150506200056f565b62000254576040516001624210ad60e11b031981526001600160a01b03841660048201526024015b60405180910390fd5b6008819055620002857f9afb95cacc9f95858ec44aa8c3b685511002e30ae54415823f406128b85b238e83620005fc565b620002df7f1a7628600c3bac7101f53697f48df381ddc36b9015e7d7c9c5633d1252aa2843620002b730601462000649565b604051602001620002c9919062000929565b60408051601f19818403018152919052620005fc565b604051600160801b60208201526200031c907f114bd03b3a46d48759680d81ebb2b414fda7d030a7105a851867accf1c2352e790603001620002c9565b604080516f0452f40ece91b521d65a03607aecad0560821b60208201526000603082015262000380910160405160208183030381529060405262000360906200099b565b6040516001600160601b0319606087901b166020820152603401620002c9565b6040805169036f42f57aecc15a72ed60b51b60208201526000602a8201526001600160601b0319606086901b16602c820152620003f29101604051602081830303815290604052620003d2906200099b565b6040516324871b3d60e01b602082015260006024820152603401620002c9565b50505062000bc3565b3390565b600080546001600160a01b038381166001600160a01b0319831681178455604051919092169283917f8be0079c531659141344cd1fd0a4f28419497f9722a3daafe3b4186f6b6457e09190a35050565b600082815260016020526040902062000469828262000a4c565b50817fece574603820d07bc9b91f2a932baadf4628aabcb8afba49776529c14a6104b2826040516200049c919062000b18565b60405180910390a25050565b7f2145e1d6d074577dc71ef54c3807742b41b053a9352ae6b491331509acb9750f8201620004e9576040516385c169bd60e01b815260040160405180910390fd5b7fd0f59754f88971fe6bc5a6618cc9d5f1e859c58d16b22d1c7b2d3e2b246cd8aa82016200052a57604051630eceab6760e31b815260040160405180910390fd5b7f1fd9e056a24d14c4abc642fcc325992a946906d0dbc57dd70278aaf12842024d82016200044f57604051634ef6d7fb60e01b815260040160405180910390fd5b5050565b604080516001600160e01b03198316602480830191909152825180830390910181526044909101909152602080820180516001600160e01b03166301ffc9a760e01b178152825160009392849283928392918391908a617530fa92503d91506000519050828015620005e2575060208210155b8015620005ef5750600081115b9450505050505b92915050565b7f098a16c9e50e3e99b3e797305c146898d294e5aec55a47e213cb3611ccf17e7382016200063d57604051631b32400560e11b815260040160405180910390fd5b6200056b8282620004a8565b606060006200065a83600262000b63565b6200066790600262000b7d565b6001600160401b0381111562000681576200068162000809565b6040519080825280601f01601f191660200182016040528015620006ac576020820181803683370190505b509050600360fc1b81600081518110620006ca57620006ca62000b93565b60200101906001600160f81b031916908160001a905350600f60fb1b81600181518110620006fc57620006fc62000b93565b60200101906001600160f81b031916908160001a90535060006200072284600262000b63565b6200072f90600162000b7d565b90505b6001811115620007b1576f181899199a1a9b1b9c1cb0b131b232b360811b85600f166010811062000767576200076762000b93565b1a60f81b82828151811062000780576200078062000b93565b60200101906001600160f81b031916908160001a90535060049490941c93620007a98162000ba9565b905062000732565b508315620008025760405162461bcd60e51b815260206004820181905260248201527f537472696e67733a20686578206c656e67746820696e73756666696369656e7460448201526064016200024b565b9392505050565b634e487b7160e01b600052604160045260246000fd5b60005b838110156200083c57818101518382015260200162000822565b50506000910152565b6000806000606084860312156200085b57600080fd5b83516001600160a01b03811681146200087357600080fd5b60208501519093506001600160401b03808211156200089157600080fd5b818601915086601f830112620008a657600080fd5b815181811115620008bb57620008bb62000809565b604051601f8201601f19908116603f01168101908382118183101715620008e657620008e662000809565b816040528281528960208487010111156200090057600080fd5b620009138360208301602088016200081f565b8096505050505050604084015190509250925092565b638019f9b160d01b81527f68747470733a2f2f6c756b736f2d677269642d716e612d626173657572692e7460088201526875737a792e636f6d2f60b81b60288201528151600090620009838160318501602087016200081f565b602f60f81b6031939091019283015250603201919050565b80516020808301519190811015620009bd576000198160200360031b1b821691505b50919050565b600181811c90821680620009d857607f821691505b602082108103620009bd57634e487b7160e01b600052602260045260246000fd5b601f82111562000a4757600081815260208120601f850160051c8101602086101562000a225750805b601f850160051c820191505b8181101562000a435782815560010162000a2e565b5050505b505050565b81516001600160401b0381111562000a685762000a6862000809565b62000a808162000a798454620009c3565b84620009f9565b602080601f83116001811462000ab8576000841562000a9f5750858301515b600019600386901b1c1916600185901b17855562000a43565b600085815260208120601f198616915b8281101562000ae95788860151825594840194600190910190840162000ac8565b508582101562000b085787850151600019600388901b60f8161c191681555b5050505050600190811b01905550565b602081526000825180602084015262000b398160408501602087016200081f565b601f01601f19169190910160400192915050565b634e487b7160e01b600052601160045260246000fd5b8082028115828204841417620005f657620005f662000b4d565b80820180821115620005f657620005f662000b4d565b634e487b7160e01b600052603260045260246000fd5b60008162000bbb5762000bbb62000b4d565b506000190190565b6140598062000bd36000396000f3fe60806040526004361061026e5760003560e01c80637e87632c11610153578063a9931e46116100cb578063c38af76e1161007f578063db8c966311610064578063db8c9663146107b7578063dedff9c6146107d7578063f2fde38b146107f7576102e2565b8063c38af76e14610784578063d6c1407c14610797576102e2565b8063b75c7dc6116100b0578063b75c7dc61461072e578063ba16d6001461074e578063be9f0e6f14610764576102e2565b8063a9931e46146106de578063b6a1cb2b1461070e576102e2565b80638da34c491161012257806392a91a3a1161010757806392a91a3a14610671578063979024211461069e578063a3b261f2146106b1576102e2565b80638da34c49146106335780638da5cb5b14610653576102e2565b80637e87632c146105c05780637f23690c146105e057806386a10ddd146105f35780638a4599c714610613576102e2565b806347b0045b116101e657806358c039cd116101b55780636963d4381161019a5780636963d4381461056b57806370a082311461058b578063715018a6146105ab576102e2565b806358c039cd1461052b57806363fed9a41461054b576102e2565b806347b0045b1461049c57806349a6078d146104be578063511b6952146104eb57806354f6127f1461050b576102e2565b80631d26fce61161023d5780632a3654a4116102225780632a3654a41461043c5780633bdc9a5b1461045c5780634056490b1461047c576102e2565b80631d26fce6146103d7578063217b227014610404576102e2565b806301ffc9a71461032357806312b497521461035857806316e023b31461038b57806318160ddd146103b8576102e2565b366102e257346000036102b05760405163e5099ee360e01b81526004016102a79060208082526004908201526000604082015260600190565b60405180910390fd5b6040517f61f4944200000000000000000000000000000000000000000000000000000000815260040160405180910390fd5b6000366060600482101561030d57828260405163e5099ee360e01b81526004016102a7929190613262565b6103178383610817565b80519350602001915050f35b34801561032f57600080fd5b5061034361033e366004613291565b610926565b60405190151581526020015b60405180910390f35b34801561036457600080fd5b506103786103733660046132bb565b610964565b60405161034f9796959493929190613324565b34801561039757600080fd5b506103ab6103a6366004613381565b610ac9565b60405161034f91906133a3565b3480156103c457600080fd5b506002545b60405190815260200161034f565b3480156103e357600080fd5b506103f76103f236600461348c565b610adc565b60405161034f91906134f0565b34801561041057600080fd5b5061042461041f3660046132bb565b610bc4565b6040516001600160a01b03909116815260200161034f565b34801561044857600080fd5b5061034361045736600461356e565b610bfd565b34801561046857600080fd5b506103c96104773660046132bb565b610c09565b34801561048857600080fd5b506104246104973660046132bb565b610c47565b3480156104a857600080fd5b506104bc6104b7366004613611565b610c8e565b005b3480156104ca57600080fd5b506104de6104d93660046132bb565b610e1b565b60405161034f919061364e565b3480156104f757600080fd5b506104bc6105063660046136ab565b610e3d565b34801561051757600080fd5b506103ab6105263660046132bb565b610e81565b34801561053757600080fd5b506103ab6105463660046132bb565b610e8c565b34801561055757600080fd5b506103c96105663660046132bb565b610ec1565b34801561057757600080fd5b506103f7610586366004613724565b610ef6565b34801561059757600080fd5b506103c96105a6366004613799565b61103f565b3480156105b757600080fd5b506104bc611060565b3480156105cc57600080fd5b506104bc6105db3660046138f8565b61109a565b6104bc6105ee366004613611565b6111a2565b3480156105ff57600080fd5b506104bc61060e3660046139bd565b6111d7565b34801561061f57600080fd5b506103ab61062e3660046132bb565b61136a565b34801561063f57600080fd5b506103c961064e3660046132bb565b61139f565b34801561065f57600080fd5b506000546001600160a01b0316610424565b34801561067d57600080fd5b506103c961068c3660046132bb565b60009081526006602052604090205490565b6104bc6106ac366004613a14565b6113d4565b3480156106bd57600080fd5b506106d16106cc366004613799565b611405565b60405161034f9190613a6e565b3480156106ea57600080fd5b506103436106f93660046132bb565b60096020526000908152604090205460ff1681565b34801561071a57600080fd5b506104bc6107293660046132bb565b611429565b34801561073a57600080fd5b506104bc6107493660046132bb565b6114ab565b34801561075a57600080fd5b506103c960085481565b34801561077057600080fd5b506104bc61077f366004613aa6565b611776565b6104bc610792366004613611565b61185a565b3480156107a357600080fd5b506104bc6107b2366004613b24565b611aaf565b3480156107c357600080fd5b506104bc6107d2366004613b5e565b611ac7565b3480156107e357600080fd5b506103f76107f2366004613bc6565b611bc4565b34801561080357600080fd5b506104bc610812366004613799565b611060565b606060006108306000356001600160e01b031916611c6f565b5090506001600160a01b038116610881576040517fbb370b2b0000000000000000000000000000000000000000000000000000000081526001600160e01b03196000351660048201526024016102a7565b600080826001600160a01b031634878733346040516020016108a69493929190613bfb565b60408051601f19818403018152908290526108c091613c2b565b60006040518083038185875af1925050503d80600081146108fd576040519150601f19603f3d011682016040523d82523d6000602084013e610902565b606091505b50915091508115610917579250610920915050565b80518060208301fd5b92915050565b60006001600160e01b031982167fcdc5f2fd000000000000000000000000000000000000000000000000000000001480610920575061092082611d19565b600080600080606080600061097888611d66565b6109a2887f76462b2cb08ff6c9429dc9e0009c6a78b74bc0e37bb5afaf94df4a5453e38145610ac9565b6109ab90613c47565b60601c96506109da887f02d12311fe1ba073b437096116ddd40fe41238aea6da9290a417a616bb3fbf3f610ac9565b6109e390613c83565b9550610a0f887fa8866758287878d914bea0299d18e613e0e66558f9e12d71da988ab71d2c00ed610ac9565b610a1890613c83565b9450610a44887f9805e08297798acd1c4924ab23a24bd2aecc550eb1056030c2fe3283173f63ea610ac9565b610a4d90613c83565b9350610a79887f740b5adc65a801b1007fb4f83976d83f8a75bf40d03352b75d3d5b13027f983b610ac9565b9250610aa5887f13fc092a262c8f46b546749395986203797d295000487ccc3c0579b06d20162e610ac9565b60009889526009602052604090982054969895979496939592949360ff1692915050565b6060610ad58383611da1565b9392505050565b60608151835114610b00576040516317d38eff60e11b815260040160405180910390fd5b825167ffffffffffffffff811115610b1a57610b1a6133b6565b604051908082528060200260200182016040528015610b4d57816020015b6060815260200190600190039081610b385790505b50905060005b8351811015610bbd57610b98848281518110610b7157610b71613ca7565b6020026020010151848381518110610b8b57610b8b613ca7565b6020026020010151611da1565b828281518110610baa57610baa613ca7565b6020908102919091010152600101610b53565b5092915050565b6000818152600360205260408120546001600160a01b03168061092057604051635747cd1b60e11b8152600481018490526024016102a7565b6000610ad58383611e78565b6000610c1482611d66565b610c3e827fa8866758287878d914bea0299d18e613e0e66558f9e12d71da988ab71d2c00ed610ac9565b61092090613c83565b6000610c5282611d66565b610c7c827f76462b2cb08ff6c9429dc9e0009c6a78b74bc0e37bb5afaf94df4a5453e38145610ac9565b610c8590613c47565b60601c92915050565b610c96611eb5565b60008281526009602052604090205460ff1615610cc957604051631376a7f160e11b8152600481018390526024016102a7565b6000828152600960205260408120805460ff19166001179055610ceb83610ec1565b90504780821115610cfe57610cfe613cbd565b60408051426020820152610d469186917f9805e08297798acd1c4924ab23a24bd2aecc550eb1056030c2fe3283173f63ea91015b604051602081830303815290604052611f2b565b610d71847f13fc092a262c8f46b546749395986203797d295000487ccc3c0579b06d20162e85611f2b565b600080546040516001600160a01b039091169084908381818185875af1925050503d8060008114610dbe576040519150601f19603f3d011682016040523d82523d6000602084013e610dc3565b606091505b5050905080610dd457610dd4613cbd565b8285610ddf87610bc4565b6001600160a01b03167ffeeec2e0e5fc2bed2e59b534002b811051748abebd0593eb87e51cc32317cdb660405160405180910390a45050505050565b6060610e2682611d66565b600082815260056020526040902061092090611fbb565b610e473384611e78565b610e6d57604051631294d2a960e01b8152600481018490523360248201526044016102a7565b610e7a8585858585611fc8565b5050505050565b6060610920826121dd565b6060610e9782611d66565b610920827f740b5adc65a801b1007fb4f83976d83f8a75bf40d03352b75d3d5b13027f983b610ac9565b6000610ecc82611d66565b610c3e827f02d12311fe1ba073b437096116ddd40fe41238aea6da9290a417a616bb3fbf3f610ac9565b60608167ffffffffffffffff811115610f1157610f116133b6565b604051908082528060200260200182016040528015610f4457816020015b6060815260200190600190039081610f2f5790505b50905060005b82811015610bbd5760008030868685818110610f6857610f68613ca7565b9050602002810190610f7a9190613cd3565b604051610f88929190613d21565b600060405180830381855af49150503d8060008114610fc3576040519150601f19603f3d011682016040523d82523d6000602084013e610fc8565b606091505b50915091508161101757805115610fe25780518082602001fd5b6040517f234eb819000000000000000000000000000000000000000000000000000000008152600481018490526024016102a7565b8084848151811061102a5761102a613ca7565b60209081029190910101525050600101610f4a565b6001600160a01b03811660009081526004602052604081206109209061227f565b611068611eb5565b6040517f3a025e8900000000000000000000000000000000000000000000000000000000815260040160405180910390fd5b84518451811415806110ad575083518114155b806110b9575082518114155b806110c5575081518114155b156110fc576040517f93a8311900000000000000000000000000000000000000000000000000000000815260040160405180910390fd5b60005b818110156111995761119187828151811061111c5761111c613ca7565b602002602001015187838151811061113657611136613ca7565b602002602001015187848151811061115057611150613ca7565b602002602001015187858151811061116a5761116a613ca7565b602002602001015187868151811061118457611184613ca7565b6020026020010151610e3d565b6001016110ff565b50505050505050565b6111aa611eb5565b34156111c95760405163f36ba73760e01b815260040160405180910390fd5b6111d38282612289565b5050565b60006111e283610bc4565b90506001600160a01b038116331461122557604051632d938f5160e11b81526001600160a01b0382166004820152602481018490523360448201526064016102a7565b6001600160a01b03841661124c57604051639577b8b360e01b815260040160405180910390fd5b836001600160a01b0316816001600160a01b03160361127e576040516344fed6b160e11b815260040160405180910390fd5b600083815260056020526040812061129690866122ec565b9050806112e1576040517fa7626b680000000000000000000000000000000000000000000000000000000081526001600160a01b0386166004820152602481018590526044016102a7565b83826001600160a01b0316866001600160a01b03167f1b1b58aa2ec0cec2228b2d37124556d41f5a1f7b12f089171f896cc2366712158660405161132591906133a3565b60405180910390a4600033856001866040516020016113479493929190613d31565b60405160208183030381529060405290506113628682612301565b505050505050565b606061137582611d66565b610920827f13fc092a262c8f46b546749395986203797d295000487ccc3c0579b06d20162e610ac9565b60006113aa82611d66565b610c3e827f9805e08297798acd1c4924ab23a24bd2aecc550eb1056030c2fe3283173f63ea610ac9565b6113dc611eb5565b34156113fb5760405163f36ba73760e01b815260040160405180910390fd5b6111d3828261232c565b6001600160a01b038116600090815260046020526040902060609061092090611fbb565b611431611eb5565b8060085403611472576008546040517fdac005630000000000000000000000000000000000000000000000000000000081526004016102a791815260200190565b6008805490829055604051829082907f0a89acc2589b36905b411a70e7426ea35ad4b5f764c5275fd92be2eb7ac23f0890600090a35050565b6114b53382611e78565b6114db57604051631294d2a960e01b8152600481018290523360248201526044016102a7565b60008181526009602052604090205460ff161561150e57604051631376a7f160e11b8152600481018290526024016102a7565b600061151982610ec1565b9050478082111561152c5761152c613cbd565b611569837f740b5adc65a801b1007fb4f83976d83f8a75bf40d03352b75d3d5b13027f983b60001b60405180602001604052806000815250611f2b565b6115a6837f13fc092a262c8f46b546749395986203797d295000487ccc3c0579b06d20162e60001b60405180602001604052806000815250611f2b565b6115e3837f02d12311fe1ba073b437096116ddd40fe41238aea6da9290a417a616bb3fbf3f60001b60405180602001604052806000815250611f2b565b611620837f76462b2cb08ff6c9429dc9e0009c6a78b74bc0e37bb5afaf94df4a5453e3814560001b60405180602001604052806000815250611f2b565b61165d837fa8866758287878d914bea0299d18e613e0e66558f9e12d71da988ab71d2c00ed60001b60405180602001604052806000815250611f2b565b61169a837f9805e08297798acd1c4924ab23a24bd2aecc550eb1056030c2fe3283173f63ea60001b60405180602001604052806000815250611f2b565b6000838152600960205260408120805460ff191690556116b984610bc4565b90506116d484604051806020016040528060008152506123f2565b6000816001600160a01b03168460405160006040518083038185875af1925050503d8060008114611721576040519150601f19603f3d011682016040523d82523d6000602084013e611726565b606091505b505090508061173757611737613cbd565b8385836001600160a01b03167fbfbc07adbb525ec0651a74b6a861b1ee289efb35df13082eed39edf70a951d6d60405160405180910390a45050505050565b61177e611eb5565b8151835114158061179157508051825114155b156117af576040516317d38eff60e11b815260040160405180910390fd5b82516000036117ea576040517f80c9830500000000000000000000000000000000000000000000000000000000815260040160405180910390fd5b60005b83518110156118545761184c84828151811061180b5761180b613ca7565b602002602001015184838151811061182557611825613ca7565b602002602001015184848151811061183f5761183f613ca7565b6020026020010151612502565b6001016117ed565b50505050565b6000546001600160a01b031633036118875760405163cf56fa7760e01b81523360048201526024016102a7565b6000828152600360205260409020546001600160a01b0316156118d9576040517f238b2123000000000000000000000000000000000000000000000000000000008152600481018390526024016102a7565b6008543490811015611925576008546040517f491f1b7d0000000000000000000000000000000000000000000000000000000081526004810191909152602481018290526044016102a7565b6040516bffffffffffffffffffffffff193360601b1660208201526119709084907f76462b2cb08ff6c9429dc9e0009c6a78b74bc0e37bb5afaf94df4a5453e3814590603401610d32565b604080514260208201526119a89185917fa8866758287878d914bea0299d18e613e0e66558f9e12d71da988ab71d2c00ed9101610d32565b6119d3837f740b5adc65a801b1007fb4f83976d83f8a75bf40d03352b75d3d5b13027f983b84611f2b565b611a10837f13fc092a262c8f46b546749395986203797d295000487ccc3c0579b06d20162e60001b60405180602001604052806000815250611f2b565b6040805160208101839052611a499185917f02d12311fe1ba073b437096116ddd40fe41238aea6da9290a417a616bb3fbf3f9101610d32565b6000838152600960205260409020805460ff19169055611a7b3384600060405180602001604052806000815250612723565b6040518190849033907f673feddc9c6c79b3fee01fc206c06c2576952cb64b3047709b59eaeb863909c590600090a4505050565b611ab7611eb5565b611ac2838383612502565b505050565b6000611ad284610bc4565b9050336001600160a01b03821614611b3e576001600160a01b0385163314611b3e576040517f760b5acd0000000000000000000000000000000000000000000000000000000081523360048201526001600160a01b0382166024820152604481018590526064016102a7565b6001600160a01b038516611b6557604051639577b8b360e01b815260040160405180910390fd5b846001600160a01b0316816001600160a01b031603611b97576040516344fed6b160e11b815260040160405180910390fd5b611ba485828686866128ae565b8215610e7a57600081856000856040516020016113479493929190613d31565b6060815167ffffffffffffffff811115611be057611be06133b6565b604051908082528060200260200182016040528015611c1357816020015b6060815260200190600190039081611bfe5790505b50905060005b8251811015611c6957611c44838281518110611c3757611c37613ca7565b60200260200101516121dd565b828281518110611c5657611c56613ca7565b6020908102919091010152600101611c19565b50919050565b60008080611ca77fcee78b4094da86011096000000000000000000000000000000000000000000006001600160e01b03198616612967565b90506000611cb4826121dd565b90508051601414158015611cc85750805115155b15611d0157806040517f42bfe79f0000000000000000000000000000000000000000000000000000000081526004016102a791906133a3565b611d0a81613c47565b60601c95600195509350505050565b60006001600160e01b031982167f3a271706000000000000000000000000000000000000000000000000000000001480611d575750611d57826129d8565b80610920575061092082612a16565b6000818152600360205260409020546001600160a01b0316611d9e57604051635747cd1b60e11b8152600481018290526024016102a7565b50565b6060600160008484604051602001611dc3929190918252602082015260400190565b6040516020818303038152906040528051906020012081526020019081526020016000208054611df290613d6b565b80601f0160208091040260200160405190810160405280929190818152602001828054611e1e90613d6b565b8015611e6b5780601f10611e4057610100808354040283529160200191611e6b565b820191906000526020600020905b815481529060010190602001808311611e4e57829003601f168201915b5050505050905092915050565b6000611e8382610bc4565b6001600160a01b0316836001600160a01b03161480610ad557506000828152600560205260409020610ad59084612a4d565b6000546001600160a01b03163314611f29576040517f08c379a000000000000000000000000000000000000000000000000000000000815260206004820181905260248201527f4f776e61626c653a2063616c6c6572206973206e6f7420746865206f776e657260448201526064016102a7565b565b80600160008585604051602001611f4c929190918252602082015260400190565b6040516020818303038152906040528051906020012081526020019081526020016000209081611f7c9190613de5565b5081837fa6e4251f855f750545fe414f120db91c76b88def14d120969e5bb2d3f05debbb83604051611fae91906133a3565b60405180910390a3505050565b60606000610ad583612a6f565b6000611fd384610bc4565b9050856001600160a01b0316816001600160a01b03161461202157604051632d938f5160e11b81526001600160a01b03808316600483015260248201869052871660448201526064016102a7565b6001600160a01b038516612048576040516324ecef4d60e01b815260040160405180910390fd5b6120558686868686612aca565b600061206085610bc4565b9050806001600160a01b0316826001600160a01b0316146120c7576040517f5a9c31d3000000000000000000000000000000000000000000000000000000008152600481018690526001600160a01b038084166024830152821660448201526064016102a7565b6120d18786612ba0565b6001600160a01b03871660009081526004602052604090206120f39086612bf8565b506001600160a01b03861660009081526004602052604090206121169086612c04565b5060008581526003602052604090819020805473ffffffffffffffffffffffffffffffffffffffff19166001600160a01b0389811691821790925591518792918a16907fb333c813a7426a7a11e2b190cad52c44119421594b47f6f32ace6d8c7207b2bf9061218a9033908a908a90613ea5565b60405180910390a4600033888888876040516020016121ad959493929190613ed8565b60405160208183030381529060405290506121c88882612c10565b6121d3878683612c3b565b5050505050505050565b60008181526001602052604090208054606091906121fa90613d6b565b80601f016020809104026020016040519081016040528092919081815260200182805461222690613d6b565b80156122735780601f1061224857610100808354040283529160200191612273565b820191906000526020600020905b81548152906001019060200180831161225657829003601f168201915b50505050509050919050565b6000610920825490565b7f098a16c9e50e3e99b3e797305c146898d294e5aec55a47e213cb3611ccf17e7382016122e2576040517f3664800a00000000000000000000000000000000000000000000000000000000815260040160405180910390fd5b6111d38282612d75565b6000610ad5836001600160a01b038416612ed5565b6111d3827f8a1c15a8799f71b547e08e2bcb2e85257e81b0a07eee2ce6712549eef1f0097083612f24565b8051825114612367576040517f3bcc897900000000000000000000000000000000000000000000000000000000815260040160405180910390fd5b81516000036123a2576040517f97da5f9500000000000000000000000000000000000000000000000000000000815260040160405180910390fd5b60005b8251811015611ac2576123ea8382815181106123c3576123c3613ca7565b60200260200101518383815181106123dd576123dd613ca7565b6020026020010151612289565b6001016123a5565b60006123fd83610bc4565b905061240e81600085600086612aca565b61241783610bc4565b905060026000815461242890613f28565b909155506124368184612ba0565b6001600160a01b03811660009081526004602052604090206124589084612bf8565b50600083815260036020526040808220805473ffffffffffffffffffffffffffffffffffffffff19169055518491906001600160a01b038416907fb333c813a7426a7a11e2b190cad52c44119421594b47f6f32ace6d8c7207b2bf906124c390339085908990613ea5565b60405180910390a460003382600086866040516020016124e7959493929190613ed8565b60405160208183030381529060405290506118548282612c10565b7f8bf4a5239a57fe4eff804b07c68927c0758a40bf2fccad48a2c2a4ecfd8067c5820161255b576040517f833647ec00000000000000000000000000000000000000000000000000000000815260040160405180910390fd5b7fec03f6d5d9d370b94ab98b6c6a679dfc8682d6afffb78333c3fa864f92dfe9d282016125b4576040517f46dc1c8b00000000000000000000000000000000000000000000000000000000815260040160405180910390fd5b7ffd2edcee01e45f8c4bc8f69ee9222bf01bedc75159256d6f5be859e944c040c1820161260d576040517f72971fb400000000000000000000000000000000000000000000000000000000815260040160405180910390fd5b7f89b9d4d34f700936bd62361fff63958748b43f1c844a50506b20b5abac1c7ebb8201612666576040517f9da9670500000000000000000000000000000000000000000000000000000000815260040160405180910390fd5b7f577998a7d7878726eb415fd662e719ec1f199aa7061ed28e25677548e2d3ff1382016126bf576040517f1ef41ef800000000000000000000000000000000000000000000000000000000815260040160405180910390fd5b7f67fa1f7d68867532e3b6db54dc5db42d5133aaf14efa9fcf3d01cd7ce8c09c168201612718576040517f83a79b4500000000000000000000000000000000000000000000000000000000815260040160405180910390fd5b611ac2838383611f2b565b6001600160a01b03841661274a576040516324ecef4d60e01b815260040160405180910390fd5b6000838152600360205260409020546001600160a01b031615612783576040516334c7b51160e01b8152600481018490526024016102a7565b612791600085858585612aca565b6000838152600360205260409020546001600160a01b0316156127ca576040516334c7b51160e01b8152600481018490526024016102a7565b6002600081546127d990613f3f565b909155506001600160a01b03841660009081526004602052604090206127ff9084612c04565b50600083815260036020526040808220805473ffffffffffffffffffffffffffffffffffffffff19166001600160a01b03881690811790915590518592907fb333c813a7426a7a11e2b190cad52c44119421594b47f6f32ace6d8c7207b2bf9061286e90339088908890613ea5565b60405180910390a46000336000868685604051602001612892959493929190613ed8565b6040516020818303038152906040529050610e7a858483612c3b565b60008381526005602052604081206128c69087612f71565b905080612911576040517f4aa31a8c0000000000000000000000000000000000000000000000000000000081526001600160a01b0387166004820152602481018590526044016102a7565b83856001600160a01b0316876001600160a01b03167fc78cd419d6136f9f1c1c6aec1d3fae098cffaf8bc86314a8f2685e32fe574e3c8686604051612957929190613f58565b60405180910390a4505050505050565b604080517fffffffffffffffffffff00000000000000000000000000000000000000000000841660208201526000602a82018190526bffffffffffffffffffffffff198416602c830152918291016040516020818303038152906040529050806129d090613c83565b949350505050565b60006001600160e01b031982167fa918fa6b000000000000000000000000000000000000000000000000000000001480610920575061092082612f86565b600080612a296301ffc9a760e01b611c6f565b5090506001600160a01b038116612a435750600092915050565b610ad58184612fd4565b6001600160a01b03811660009081526001830160205260408120541515610ad5565b60608160000180548060200260200160405190810160405280929190818152602001828054801561227357602002820191906000526020600020905b815481526020019060010190808311612aab5750505050509050919050565b6000546001600160a01b03166001600160a01b0316846001600160a01b031603612b125760405163cf56fa7760e01b81526001600160a01b03851660048201526024016102a7565b612b3c847f24871b3d00000000000000000000000000000000000000000000000000000000612fd4565b158015612b5157506001600160a01b03841615155b15612b93576040517fff7bdea60000000000000000000000000000000000000000000000000000000081526001600160a01b03851660048201526024016102a7565b610e7a8585858585613072565b600081815260056020526040812090612bb88261227f565b90506000805b8281101561136257612bd1846000613139565b9150612bf08287876000604051806020016040528060008152506128ae565b600101612bbe565b6000610ad58383613145565b6000610ad58383612ed5565b6111d3827fb23eae7e6d1564b295b4c3e3be402d9a2f0776c57bdf365903496f6fa481ab0083612f24565b612c4c83631aed5a8560e21b612fd4565b15612ce657604051631aed5a8560e21b81526001600160a01b03841690636bb56a1490612c9f907f0b084a55ebf70fd3c06fd755269dac2212c4d3f0f4d09079780bfa50c1b2984d908590600401613f73565b6000604051808303816000875af1158015612cbe573d6000803e3d6000fd5b505050506040513d6000823e601f3d908101601f191682016040526118549190810190613f8c565b81611ac2576001600160a01b0383163b15612d38576040517f4349776d0000000000000000000000000000000000000000000000000000000081526001600160a01b03841660048201526024016102a7565b6040517f031731370000000000000000000000000000000000000000000000000000000081526001600160a01b03841660048201526024016102a7565b7f2145e1d6d074577dc71ef54c3807742b41b053a9352ae6b491331509acb9750f8201612dce576040517f85c169bd00000000000000000000000000000000000000000000000000000000815260040160405180910390fd5b7fd0f59754f88971fe6bc5a6618cc9d5f1e859c58d16b22d1c7b2d3e2b246cd8aa8201612e27576040517f76755b3800000000000000000000000000000000000000000000000000000000815260040160405180910390fd5b7f1fd9e056a24d14c4abc642fcc325992a946906d0dbc57dd70278aaf12842024d8201612e80576040517f4ef6d7fb00000000000000000000000000000000000000000000000000000000815260040160405180910390fd5b6000828152600160205260409020612e988282613de5565b50817fece574603820d07bc9b91f2a932baadf4628aabcb8afba49776529c14a6104b282604051612ec991906133a3565b60405180910390a25050565b6000818152600183016020526040812054612f1c57508154600181810184556000848152602080822090930184905584548482528286019093526040902091909155610920565b506000610920565b612f3e6001600160a01b038416631aed5a8560e21b612fd4565b15611ac257604051631aed5a8560e21b81526001600160a01b03841690636bb56a1490612c9f9085908590600401613f73565b6000610ad5836001600160a01b038416613145565b60006001600160e01b031982167f629aa69400000000000000000000000000000000000000000000000000000000148061092057506301ffc9a760e01b6001600160e01b0319831614610920565b604080516001600160e01b03198316602480830191909152825180830390910181526044909101909152602080820180517bffffffffffffffffffffffffffffffffffffffffffffffffffffffff166301ffc9a760e01b178152825160009392849283928392918391908a617530fa92503d9150600051905082801561305b575060208210155b80156130675750600081115b979650505050505050565b6001600160a01b0385166130ac57600061308b60025490565b60008181526006602090815260408083208890558783526007909152902055505b6001600160a01b03841661313457600060016130c760025490565b6130d19190613ffa565b60008581526007602052604090205490915081811015613113576000828152600660209081526040808320548484528184208190558352600790915290208190555b50600090815260066020908152604080832083905585835260079091528120555b610e7a565b6000610ad58383613238565b6000818152600183016020526040812054801561322e576000613169600183613ffa565b855490915060009061317d90600190613ffa565b90508181146131e257600086600001828154811061319d5761319d613ca7565b90600052602060002001549050808760000184815481106131c0576131c0613ca7565b6000918252602080832090910192909255918252600188019052604090208390555b85548690806131f3576131f361400d565b600190038181906000526020600020016000905590558560010160008681526020019081526020016000206000905560019350505050610920565b6000915050610920565b600082600001828154811061324f5761324f613ca7565b9060005260206000200154905092915050565b60208152816020820152818360408301376000818301604090810191909152601f909201601f19160101919050565b6000602082840312156132a357600080fd5b81356001600160e01b031981168114610ad557600080fd5b6000602082840312156132cd57600080fd5b5035919050565b60005b838110156132ef5781810151838201526020016132d7565b50506000910152565b600081518084526133108160208601602086016132d4565b601f01601f19169290920160200192915050565b6001600160a01b038816815286602082015285604082015284606082015260e06080820152600061335860e08301866132f8565b82810360a084015261336a81866132f8565b91505082151560c083015298975050505050505050565b6000806040838503121561339457600080fd5b50508035926020909101359150565b602081526000610ad560208301846132f8565b634e487b7160e01b600052604160045260246000fd5b604051601f8201601f1916810167ffffffffffffffff811182821017156133f5576133f56133b6565b604052919050565b600067ffffffffffffffff821115613417576134176133b6565b5060051b60200190565b600082601f83011261343257600080fd5b81356020613447613442836133fd565b6133cc565b82815260059290921b8401810191818101908684111561346657600080fd5b8286015b84811015613481578035835291830191830161346a565b509695505050505050565b6000806040838503121561349f57600080fd5b823567ffffffffffffffff808211156134b757600080fd5b6134c386838701613421565b935060208501359150808211156134d957600080fd5b506134e685828601613421565b9150509250929050565b6000602080830181845280855180835260408601915060408160051b870101925083870160005b8281101561354557603f198886030184526135338583516132f8565b94509285019290850190600101613517565b5092979650505050505050565b80356001600160a01b038116811461356957600080fd5b919050565b6000806040838503121561358157600080fd5b61358a83613552565b946020939093013593505050565b600067ffffffffffffffff8211156135b2576135b26133b6565b50601f01601f191660200190565b600082601f8301126135d157600080fd5b81356135df61344282613598565b8181528460208386010111156135f457600080fd5b816020850160208301376000918101602001919091529392505050565b6000806040838503121561362457600080fd5b82359150602083013567ffffffffffffffff81111561364257600080fd5b6134e6858286016135c0565b6020808252825182820181905260009190848201906040850190845b8181101561368f5783516001600160a01b03168352928401929184019160010161366a565b50909695505050505050565b8035801515811461356957600080fd5b600080600080600060a086880312156136c357600080fd5b6136cc86613552565b94506136da60208701613552565b9350604086013592506136ef6060870161369b565b9150608086013567ffffffffffffffff81111561370b57600080fd5b613717888289016135c0565b9150509295509295909350565b6000806020838503121561373757600080fd5b823567ffffffffffffffff8082111561374f57600080fd5b818501915085601f83011261376357600080fd5b81358181111561377257600080fd5b8660208260051b850101111561378757600080fd5b60209290920196919550909350505050565b6000602082840312156137ab57600080fd5b610ad582613552565b600082601f8301126137c557600080fd5b813560206137d5613442836133fd565b82815260059290921b840181019181810190868411156137f457600080fd5b8286015b848110156134815761380981613552565b83529183019183016137f8565b600082601f83011261382757600080fd5b81356020613837613442836133fd565b82815260059290921b8401810191818101908684111561385657600080fd5b8286015b848110156134815761386b8161369b565b835291830191830161385a565b600082601f83011261388957600080fd5b81356020613899613442836133fd565b82815260059290921b840181019181810190868411156138b857600080fd5b8286015b8481101561348157803567ffffffffffffffff8111156138dc5760008081fd5b6138ea8986838b01016135c0565b8452509183019183016138bc565b600080600080600060a0868803121561391057600080fd5b853567ffffffffffffffff8082111561392857600080fd5b61393489838a016137b4565b9650602088013591508082111561394a57600080fd5b61395689838a016137b4565b9550604088013591508082111561396c57600080fd5b61397889838a01613421565b9450606088013591508082111561398e57600080fd5b61399a89838a01613816565b935060808801359150808211156139b057600080fd5b5061371788828901613878565b6000806000606084860312156139d257600080fd5b6139db84613552565b925060208401359150604084013567ffffffffffffffff8111156139fe57600080fd5b613a0a868287016135c0565b9150509250925092565b60008060408385031215613a2757600080fd5b823567ffffffffffffffff80821115613a3f57600080fd5b613a4b86838701613421565b93506020850135915080821115613a6157600080fd5b506134e685828601613878565b6020808252825182820181905260009190848201906040850190845b8181101561368f57835183529284019291840191600101613a8a565b600080600060608486031215613abb57600080fd5b833567ffffffffffffffff80821115613ad357600080fd5b613adf87838801613421565b94506020860135915080821115613af557600080fd5b613b0187838801613421565b93506040860135915080821115613b1757600080fd5b50613a0a86828701613878565b600080600060608486031215613b3957600080fd5b8335925060208401359150604084013567ffffffffffffffff8111156139fe57600080fd5b60008060008060808587031215613b7457600080fd5b613b7d85613552565b935060208501359250613b926040860161369b565b9150606085013567ffffffffffffffff811115613bae57600080fd5b613bba878288016135c0565b91505092959194509250565b600060208284031215613bd857600080fd5b813567ffffffffffffffff811115613bef57600080fd5b6129d084828501613421565b8385823760609290921b6bffffffffffffffffffffffff1916919092019081526014810191909152603401919050565b60008251613c3d8184602087016132d4565b9190910192915050565b805160208201516bffffffffffffffffffffffff198082169291906014831015613c7b5780818460140360031b1b83161693505b505050919050565b80516020808301519190811015611c695760001960209190910360031b1b16919050565b634e487b7160e01b600052603260045260246000fd5b634e487b7160e01b600052600160045260246000fd5b6000808335601e19843603018112613cea57600080fd5b83018035915067ffffffffffffffff821115613d0557600080fd5b602001915036819003821315613d1a57600080fd5b9250929050565b8183823760009101908152919050565b6001600160a01b03851681528360208201528215156040820152608060608201526000613d6160808301846132f8565b9695505050505050565b600181811c90821680613d7f57607f821691505b602082108103611c6957634e487b7160e01b600052602260045260246000fd5b601f821115611ac257600081815260208120601f850160051c81016020861015613dc65750805b601f850160051c820191505b8181101561136257828155600101613dd2565b815167ffffffffffffffff811115613dff57613dff6133b6565b613e1381613e0d8454613d6b565b84613d9f565b602080601f831160018114613e485760008415613e305750858301515b600019600386901b1c1916600185901b178555611362565b600085815260208120601f198616915b82811015613e7757888601518255948401946001909101908401613e58565b5085821015613e955787850151600019600388901b60f8161c191681555b5050505050600190811b01905550565b6001600160a01b03841681528215156020820152606060408201526000613ecf60608301846132f8565b95945050505050565b60006001600160a01b038088168352808716602084015280861660408401525083606083015260a0608083015261306760a08301846132f8565b634e487b7160e01b600052601160045260246000fd5b600081613f3757613f37613f12565b506000190190565b600060018201613f5157613f51613f12565b5060010190565b82151581526040602082015260006129d060408301846132f8565b8281526040602082015260006129d060408301846132f8565b600060208284031215613f9e57600080fd5b815167ffffffffffffffff811115613fb557600080fd5b8201601f81018413613fc657600080fd5b8051613fd461344282613598565b818152856020838501011115613fe957600080fd5b613ecf8260208301602086016132d4565b8181038181111561092057610920613f12565b634e487b7160e01b600052603160045260246000fdfea26469706673582212207a06ef4ca141909d8fea9b0270c46419a08b101b219ffa9f04b68a3540b893e964736f6c63430008140033a2646970667358221220f621f090e5ca5c3ed0538796b54bc0aaff9a917b358d5219ad58eea2a1b954c164736f6c63430008140033",
  "linkReferences": {},
  "deployedLinkReferences": {}
}